{
  "address": "0xb8026085CfcD6D0F3D06023e541466A28D5deb9B",
  "abi": [
    {
      "inputs": [],
      "stateMutability": "nonpayable",
      "type": "constructor"
    },
    {
      "anonymous": false,
      "inputs": [
        {
          "indexed": true,
          "internalType": "address",
          "name": "user",
          "type": "address"
        },
        {
          "indexed": true,
          "internalType": "address",
          "name": "token",
          "type": "address"
        },
        {
          "indexed": false,
          "internalType": "uint256",
          "name": "amount",
          "type": "uint256"
        }
      ],
      "name": "Borrow",
      "type": "event"
    },
    {
      "anonymous": false,
      "inputs": [
        {
          "indexed": true,
          "internalType": "address",
          "name": "user",
          "type": "address"
        },
        {
          "indexed": true,
          "internalType": "address",
          "name": "token",
          "type": "address"
        },
        {
          "indexed": false,
          "internalType": "uint256",
          "name": "amount",
          "type": "uint256"
        }
      ],
      "name": "Deposit",
      "type": "event"
    },
    {
      "anonymous": false,
      "inputs": [
        {
          "indexed": true,
          "internalType": "address",
          "name": "liquidator",
          "type": "address"
        },
        {
          "indexed": true,
          "internalType": "address",
          "name": "borrower",
          "type": "address"
        },
        {
          "indexed": true,
          "internalType": "address",
          "name": "collateralToken",
          "type": "address"
        },
        {
          "indexed": false,
          "internalType": "address",
          "name": "debtToken",
          "type": "address"
        }
      ],
      "name": "Liquidate",
      "type": "event"
    },
    {
      "anonymous": false,
      "inputs": [
        {
          "indexed": true,
          "internalType": "address",
          "name": "user",
          "type": "address"
        },
        {
          "indexed": true,
          "internalType": "address",
          "name": "token",
          "type": "address"
        },
        {
          "indexed": false,
          "internalType": "uint256",
          "name": "amount",
          "type": "uint256"
        }
      ],
      "name": "Repay",
      "type": "event"
    },
    {
      "anonymous": false,
      "inputs": [
        {
          "indexed": true,
          "internalType": "address",
          "name": "user",
          "type": "address"
        },
        {
          "indexed": true,
          "internalType": "address",
          "name": "token",
          "type": "address"
        },
        {
          "indexed": false,
          "internalType": "uint256",
          "name": "amount",
          "type": "uint256"
        }
      ],
      "name": "Withdraw",
      "type": "event"
    },
    {
      "inputs": [],
      "name": "LIQUIDATE_REWARD",
      "outputs": [
        {
          "internalType": "uint256",
          "name": "",
          "type": "uint256"
        }
      ],
      "stateMutability": "view",
      "type": "function"
    },
    {
      "inputs": [],
      "name": "PRECISION",
      "outputs": [
        {
          "internalType": "uint256",
          "name": "",
          "type": "uint256"
        }
      ],
      "stateMutability": "view",
      "type": "function"
    },
    {
      "inputs": [],
      "name": "SECONDS_PER_YEAR",
      "outputs": [
        {
          "internalType": "uint256",
          "name": "",
          "type": "uint256"
        }
      ],
      "stateMutability": "view",
      "type": "function"
    },
    {
      "inputs": [],
      "name": "_owner",
      "outputs": [
        {
          "internalType": "address",
          "name": "",
          "type": "address"
        }
      ],
      "stateMutability": "view",
      "type": "function"
    },
    {
      "inputs": [
        {
          "internalType": "uint256",
          "name": "",
          "type": "uint256"
        }
      ],
      "name": "acceptedTokens",
      "outputs": [
        {
          "internalType": "address",
          "name": "",
          "type": "address"
        }
      ],
      "stateMutability": "view",
      "type": "function"
    },
    {
      "inputs": [
        {
          "internalType": "address",
          "name": "",
          "type": "address"
        },
        {
          "internalType": "address",
          "name": "",
          "type": "address"
        }
      ],
      "name": "accounts",
      "outputs": [
        {
          "internalType": "uint256",
          "name": "deposited",
          "type": "uint256"
        },
        {
          "internalType": "uint256",
          "name": "borrowed",
          "type": "uint256"
        },
        {
          "internalType": "uint256",
          "name": "lastUpdated",
          "type": "uint256"
        }
      ],
      "stateMutability": "view",
      "type": "function"
    },
    {
      "inputs": [
        {
          "internalType": "address",
          "name": "tokenAddress",
          "type": "address"
        },
        {
          "internalType": "uint256",
          "name": "interestRate",
          "type": "uint256"
        },
        {
          "internalType": "uint256",
          "name": "collateralFactor",
          "type": "uint256"
        }
      ],
      "name": "addToken",
      "outputs": [],
      "stateMutability": "nonpayable",
      "type": "function"
    },
    {
      "inputs": [
        {
          "internalType": "address",
          "name": "token",
          "type": "address"
        },
        {
          "internalType": "uint256",
          "name": "amount",
          "type": "uint256"
        }
      ],
      "name": "deposit",
      "outputs": [],
      "stateMutability": "nonpayable",
      "type": "function"
    },
    {
      "inputs": [
        {
          "internalType": "address",
          "name": "add1",
          "type": "address"
        },
        {
          "internalType": "address",
          "name": "add2",
          "type": "address"
        }
      ],
      "name": "getAccount",
      "outputs": [
        {
          "components": [
            {
              "internalType": "uint256",
              "name": "deposited",
              "type": "uint256"
            },
            {
              "internalType": "uint256",
              "name": "borrowed",
              "type": "uint256"
            },
            {
              "internalType": "uint256",
              "name": "lastUpdated",
              "type": "uint256"
            }
          ],
          "internalType": "struct DefiLendingDapp.Account",
          "name": "",
          "type": "tuple"
        }
      ],
      "stateMutability": "view",
      "type": "function"
    },
    {
      "inputs": [
        {
          "internalType": "address",
          "name": "borrower",
          "type": "address"
        },
        {
          "internalType": "address",
          "name": "collateralToken",
          "type": "address"
        },
        {
          "internalType": "address",
          "name": "forRepayToken",
          "type": "address"
        },
        {
          "internalType": "uint256",
          "name": "collateralTokenAmount",
          "type": "uint256"
        }
      ],
      "name": "liquidate",
      "outputs": [],
      "stateMutability": "nonpayable",
      "type": "function"
    },
    {
      "inputs": [
        {
          "internalType": "address",
          "name": "mortgageToken",
          "type": "address"
        },
        {
          "internalType": "uint256",
          "name": "mortgageAmount",
          "type": "uint256"
        },
        {
          "internalType": "address",
          "name": "borrowToken",
          "type": "address"
        }
      ],
      "name": "mortgageAndBorrow",
      "outputs": [],
      "stateMutability": "nonpayable",
      "type": "function"
    },
    {
      "inputs": [
        {
          "internalType": "address",
          "name": "borrowToken",
          "type": "address"
        },
        {
          "internalType": "uint256",
          "name": "repayBorrowTokenAmount",
          "type": "uint256"
        },
        {
          "internalType": "address",
          "name": "withdrawToken",
          "type": "address"
        }
      ],
      "name": "repay",
      "outputs": [],
      "stateMutability": "nonpayable",
      "type": "function"
    },
    {
      "inputs": [
        {
          "internalType": "address",
          "name": "token",
          "type": "address"
        },
        {
          "internalType": "uint256",
          "name": "price",
          "type": "uint256"
        }
      ],
      "name": "setTokenPrice",
      "outputs": [],
      "stateMutability": "nonpayable",
      "type": "function"
    },
    {
      "inputs": [
        {
          "internalType": "address",
          "name": "",
          "type": "address"
        }
      ],
      "name": "tokenPrices",
      "outputs": [
        {
          "internalType": "uint256",
          "name": "",
          "type": "uint256"
        }
      ],
      "stateMutability": "view",
      "type": "function"
    },
    {
      "inputs": [
        {
          "internalType": "address",
          "name": "",
          "type": "address"
        }
      ],
      "name": "tokens",
      "outputs": [
        {
          "internalType": "bool",
          "name": "isAccepted",
          "type": "bool"
        },
        {
          "internalType": "uint256",
          "name": "totalSupply",
          "type": "uint256"
        },
        {
          "internalType": "uint256",
          "name": "totalBorrowed",
          "type": "uint256"
        },
        {
          "internalType": "uint256",
          "name": "interestRate",
          "type": "uint256"
        },
        {
          "internalType": "uint256",
          "name": "collateralFactor",
          "type": "uint256"
        }
      ],
      "stateMutability": "view",
      "type": "function"
    },
    {
      "inputs": [
        {
          "internalType": "address",
          "name": "token",
          "type": "address"
        },
        {
          "internalType": "uint256",
          "name": "amount",
          "type": "uint256"
        }
      ],
      "name": "withdraw",
      "outputs": [],
      "stateMutability": "nonpayable",
      "type": "function"
    }
  ],
  "transactionHash": "0xf8735b1b7f1fb6401831640c4dcb924b1696a6477f8c367bdeb45a023d53d34c",
  "args": [],
  "numDeployments": 1,
  "solcInputHash": "9ee14d701b6333a03d9ebfc7103d2bf1",
  "bytecode": "0x6080604052348015600f57600080fd5b50336000806101000a81548173ffffffffffffffffffffffffffffffffffffffff021916908373ffffffffffffffffffffffffffffffffffffffff160217905550613a488061005f6000396000f3fe608060405234801561001057600080fd5b50600436106101005760003560e01c8063ad74b77511610097578063e486033911610066578063e486033914610299578063e6a69ab8146102cd578063f3fef3a3146102eb578063fd5908471461030757610100565b8063ad74b77514610211578063b2bdfa7b14610243578063bf5e27ec14610261578063dee1f2af1461027d57610100565b806347e7ef24116100d357806347e7ef241461019f5780635ceae9c4146101bb578063aab3f868146101d7578063aaf5eb68146101f357610100565b8063204120bc146101055780632154e6fc1461013557806336c8775414610153578063431f63c914610183575b600080fd5b61011f600480360381019061011a91906129a1565b610337565b60405161012c91906129e7565b60405180910390f35b61013d61034f565b60405161014a91906129e7565b60405180910390f35b61016d60048036038101906101689190612a2e565b610373565b60405161017a9190612a6a565b60405180910390f35b61019d60048036038101906101989190612a85565b6103b2565b005b6101b960048036038101906101b49190612a85565b610488565b005b6101d560048036038101906101d09190612ac5565b6107bf565b005b6101f160048036038101906101ec9190612b18565b610f52565b005b6101fb611872565b60405161020891906129e7565b60405180910390f35b61022b60048036038101906102269190612b7f565b61187e565b60405161023a93929190612bbf565b60405180910390f35b61024b6118b5565b6040516102589190612a6a565b60405180910390f35b61027b60048036038101906102769190612ac5565b6118d9565b005b61029760048036038101906102929190612bf6565b611fde565b005b6102b360048036038101906102ae91906129a1565b61227d565b6040516102c4959493929190612c64565b60405180910390f35b6102d56122c0565b6040516102e291906129e7565b60405180910390f35b61030560048036038101906103009190612a85565b6122c8565b005b610321600480360381019061031c9190612b7f565b6125ae565b60405161032e9190612d08565b60405180910390f35b60026020528060005260406000206000915090505481565b600a670de0b6b3a7640000600b6103669190612d52565b6103709190612dc3565b81565b6004818154811061038357600080fd5b906000526020600020016000915054906101000a900473ffffffffffffffffffffffffffffffffffffffff1681565b3373ffffffffffffffffffffffffffffffffffffffff1660008054906101000a900473ffffffffffffffffffffffffffffffffffffffff1673ffffffffffffffffffffffffffffffffffffffff1614610440576040517f08c379a000000000000000000000000000000000000000000000000000000000815260040161043790612e51565b60405180910390fd5b80600260008473ffffffffffffffffffffffffffffffffffffffff1673ffffffffffffffffffffffffffffffffffffffff168152602001908152602001600020819055505050565b600160008373ffffffffffffffffffffffffffffffffffffffff1673ffffffffffffffffffffffffffffffffffffffff16815260200190815260200160002060000160009054906101000a900460ff16610517576040517f08c379a000000000000000000000000000000000000000000000000000000000815260040161050e90612ebd565b60405180910390fd5b6000811161055a576040517f08c379a000000000000000000000000000000000000000000000000000000000815260040161055190612f29565b60405180910390fd5b6000600260008473ffffffffffffffffffffffffffffffffffffffff1673ffffffffffffffffffffffffffffffffffffffff16815260200190815260200160002054116105dc576040517f08c379a00000000000000000000000000000000000000000000000000000000081526004016105d390612f95565b60405180910390fd5b6105e63383612663565b8173ffffffffffffffffffffffffffffffffffffffff166323b872dd3330846040518463ffffffff1660e01b815260040161062393929190612fb5565b6020604051808303816000875af1158015610642573d6000803e3d6000fd5b505050506040513d601f19601f820116820180604052508101906106669190613018565b5080600360003373ffffffffffffffffffffffffffffffffffffffff1673ffffffffffffffffffffffffffffffffffffffff16815260200190815260200160002060008473ffffffffffffffffffffffffffffffffffffffff1673ffffffffffffffffffffffffffffffffffffffff16815260200190815260200160002060000160008282546106f69190613045565b9250508190555080600160008473ffffffffffffffffffffffffffffffffffffffff1673ffffffffffffffffffffffffffffffffffffffff168152602001908152602001600020600101600082825461074f9190613045565b925050819055508173ffffffffffffffffffffffffffffffffffffffff163373ffffffffffffffffffffffffffffffffffffffff167f5548c837ab068cf56a2c2479df0882a4922fd203edb7517321831d95078c5f62836040516107b391906129e7565b60405180910390a35050565b600160008273ffffffffffffffffffffffffffffffffffffffff1673ffffffffffffffffffffffffffffffffffffffff16815260200190815260200160002060000160009054906101000a900460ff1680156108675750600160008473ffffffffffffffffffffffffffffffffffffffff1673ffffffffffffffffffffffffffffffffffffffff16815260200190815260200160002060000160009054906101000a900460ff165b6108a6576040517f08c379a000000000000000000000000000000000000000000000000000000000815260040161089d90612ebd565b60405180910390fd5b6000600260008373ffffffffffffffffffffffffffffffffffffffff1673ffffffffffffffffffffffffffffffffffffffff1681526020019081526020016000205411801561093457506000600260008573ffffffffffffffffffffffffffffffffffffffff1673ffffffffffffffffffffffffffffffffffffffff16815260200190815260200160002054115b610973576040517f08c379a000000000000000000000000000000000000000000000000000000000815260040161096a90612f95565b60405180910390fd5b600082116109b6576040517f08c379a00000000000000000000000000000000000000000000000000000000081526004016109ad906130eb565b60405180910390fd5b6000610a4183600360003373ffffffffffffffffffffffffffffffffffffffff1673ffffffffffffffffffffffffffffffffffffffff16815260200190815260200160002060008773ffffffffffffffffffffffffffffffffffffffff1673ffffffffffffffffffffffffffffffffffffffff16815260200190815260200160002060010154612818565b90506000600160008673ffffffffffffffffffffffffffffffffffffffff1673ffffffffffffffffffffffffffffffffffffffff16815260200190815260200160002060040154600260008573ffffffffffffffffffffffffffffffffffffffff1673ffffffffffffffffffffffffffffffffffffffff16815260200190815260200160002054610ad29190612d52565b670de0b6b3a7640000600260008873ffffffffffffffffffffffffffffffffffffffff1673ffffffffffffffffffffffffffffffffffffffff1681526020019081526020016000205484610b269190612d52565b610b309190612d52565b610b3a9190612dc3565b905060008111610b7f576040517f08c379a0000000000000000000000000000000000000000000000000000000008152600401610b769061317d565b60405180910390fd5b808373ffffffffffffffffffffffffffffffffffffffff166370a08231306040518263ffffffff1660e01b8152600401610bb99190612a6a565b602060405180830381865afa158015610bd6573d6000803e3d6000fd5b505050506040513d601f19601f82011682018060405250810190610bfa91906131b2565b1015610c3b576040517f08c379a0000000000000000000000000000000000000000000000000000000008152600401610c3290613251565b60405180910390fd5b818573ffffffffffffffffffffffffffffffffffffffff166370a08231336040518263ffffffff1660e01b8152600401610c759190612a6a565b602060405180830381865afa158015610c92573d6000803e3d6000fd5b505050506040513d601f19601f82011682018060405250810190610cb691906131b2565b1015610cf7576040517f08c379a0000000000000000000000000000000000000000000000000000000008152600401610cee906132e3565b60405180910390fd5b81600360003373ffffffffffffffffffffffffffffffffffffffff1673ffffffffffffffffffffffffffffffffffffffff16815260200190815260200160002060008773ffffffffffffffffffffffffffffffffffffffff1673ffffffffffffffffffffffffffffffffffffffff1681526020019081526020016000206001016000828254610d869190613303565b9250508190555081600160008773ffffffffffffffffffffffffffffffffffffffff1673ffffffffffffffffffffffffffffffffffffffff1681526020019081526020016000206002016000828254610ddf9190613303565b925050819055508473ffffffffffffffffffffffffffffffffffffffff166323b872dd3330856040518463ffffffff1660e01b8152600401610e2393929190612fb5565b6020604051808303816000875af1158015610e42573d6000803e3d6000fd5b505050506040513d601f19601f82011682018060405250810190610e669190613018565b508273ffffffffffffffffffffffffffffffffffffffff1663a9059cbb33836040518363ffffffff1660e01b8152600401610ea2929190613337565b6020604051808303816000875af1158015610ec1573d6000803e3d6000fd5b505050506040513d601f19601f82011682018060405250810190610ee59190613018565b508473ffffffffffffffffffffffffffffffffffffffff163373ffffffffffffffffffffffffffffffffffffffff167f05f2eeda0e08e4b437f487c8d7d29b14537d15e3488170dc3de5dbdf8dac468484604051610f4391906129e7565b60405180910390a35050505050565b600160008473ffffffffffffffffffffffffffffffffffffffff1673ffffffffffffffffffffffffffffffffffffffff16815260200190815260200160002060000160009054906101000a900460ff168015610ffa5750600160008373ffffffffffffffffffffffffffffffffffffffff1673ffffffffffffffffffffffffffffffffffffffff16815260200190815260200160002060000160009054906101000a900460ff165b611039576040517f08c379a000000000000000000000000000000000000000000000000000000000815260040161103090612ebd565b60405180910390fd5b6000600260008573ffffffffffffffffffffffffffffffffffffffff1673ffffffffffffffffffffffffffffffffffffffff168152602001908152602001600020541180156110c757506000600260008473ffffffffffffffffffffffffffffffffffffffff1673ffffffffffffffffffffffffffffffffffffffff16815260200190815260200160002054115b611106576040517f08c379a00000000000000000000000000000000000000000000000000000000081526004016110fd90612f95565b60405180910390fd5b60008111611149576040517f08c379a0000000000000000000000000000000000000000000000000000000008152600401611140906133d2565b60405180910390fd5b60006111d482600360008873ffffffffffffffffffffffffffffffffffffffff1673ffffffffffffffffffffffffffffffffffffffff16815260200190815260200160002060008673ffffffffffffffffffffffffffffffffffffffff1673ffffffffffffffffffffffffffffffffffffffff16815260200190815260200160002060010154612818565b90506000600160008573ffffffffffffffffffffffffffffffffffffffff1673ffffffffffffffffffffffffffffffffffffffff16815260200190815260200160002060040154600260008773ffffffffffffffffffffffffffffffffffffffff1673ffffffffffffffffffffffffffffffffffffffff168152602001908152602001600020546112659190612d52565b600260008673ffffffffffffffffffffffffffffffffffffffff1673ffffffffffffffffffffffffffffffffffffffff16815260200190815260200160002054600a670de0b6b3a7640000600b6112bc9190612d52565b6112c69190612dc3565b846112d19190612d52565b6112db9190612d52565b6112e59190612dc3565b90506000811161132a576040517f08c379a000000000000000000000000000000000000000000000000000000000815260040161132190613464565b60405180910390fd5b808573ffffffffffffffffffffffffffffffffffffffff166370a08231306040518263ffffffff1660e01b81526004016113649190612a6a565b602060405180830381865afa158015611381573d6000803e3d6000fd5b505050506040513d601f19601f820116820180604052508101906113a591906131b2565b10156113e6576040517f08c379a00000000000000000000000000000000000000000000000000000000081526004016113dd906134f6565b60405180910390fd5b818473ffffffffffffffffffffffffffffffffffffffff166370a08231336040518263ffffffff1660e01b81526004016114209190612a6a565b602060405180830381865afa15801561143d573d6000803e3d6000fd5b505050506040513d601f19601f8201168201806040525081019061146191906131b2565b10156114a2576040517f08c379a000000000000000000000000000000000000000000000000000000000815260040161149990613588565b60405180910390fd5b6114e16040518060400160405280600281526020017f313a00000000000000000000000000000000000000000000000000000000000081525083612831565b61154b6040518060400160405280600281526020017f323a000000000000000000000000000000000000000000000000000000000000815250600a670de0b6b3a7640000600b6115319190612d52565b61153b9190612dc3565b846115469190612d52565b612831565b6115ff6040518060400160405280600281526020017f333a000000000000000000000000000000000000000000000000000000000000815250600260008773ffffffffffffffffffffffffffffffffffffffff1673ffffffffffffffffffffffffffffffffffffffff16815260200190815260200160002054600a670de0b6b3a7640000600b6115db9190612d52565b6115e59190612dc3565b856115f09190612d52565b6115fa9190612d52565b612831565b81600360008873ffffffffffffffffffffffffffffffffffffffff1673ffffffffffffffffffffffffffffffffffffffff16815260200190815260200160002060008673ffffffffffffffffffffffffffffffffffffffff1673ffffffffffffffffffffffffffffffffffffffff168152602001908152602001600020600101600082825461168e9190613303565b9250508190555081600160008673ffffffffffffffffffffffffffffffffffffffff1673ffffffffffffffffffffffffffffffffffffffff16815260200190815260200160002060020160008282546116e79190613303565b925050819055508373ffffffffffffffffffffffffffffffffffffffff166323b872dd3330856040518463ffffffff1660e01b815260040161172b93929190612fb5565b6020604051808303816000875af115801561174a573d6000803e3d6000fd5b505050506040513d601f19601f8201168201806040525081019061176e9190613018565b508473ffffffffffffffffffffffffffffffffffffffff1663a9059cbb33836040518363ffffffff1660e01b81526004016117aa929190613337565b6020604051808303816000875af11580156117c9573d6000803e3d6000fd5b505050506040513d601f19601f820116820180604052508101906117ed9190613018565b508473ffffffffffffffffffffffffffffffffffffffff168673ffffffffffffffffffffffffffffffffffffffff163373ffffffffffffffffffffffffffffffffffffffff167fe804d8db307862a5f35a3da24942f9cb36d1b20558edaaddced90ecbc46310f9876040516118629190612a6a565b60405180910390a4505050505050565b670de0b6b3a764000081565b6003602052816000526040600020602052806000526040600020600091509150508060000154908060010154908060020154905083565b60008054906101000a900473ffffffffffffffffffffffffffffffffffffffff1681565b600160008473ffffffffffffffffffffffffffffffffffffffff1673ffffffffffffffffffffffffffffffffffffffff16815260200190815260200160002060000160009054906101000a900460ff1680156119815750600160008273ffffffffffffffffffffffffffffffffffffffff1673ffffffffffffffffffffffffffffffffffffffff16815260200190815260200160002060000160009054906101000a900460ff165b6119c0576040517f08c379a00000000000000000000000000000000000000000000000000000000081526004016119b790612ebd565b60405180910390fd5b6000600260008573ffffffffffffffffffffffffffffffffffffffff1673ffffffffffffffffffffffffffffffffffffffff16815260200190815260200160002054118015611a4e57506000600260008373ffffffffffffffffffffffffffffffffffffffff1673ffffffffffffffffffffffffffffffffffffffff16815260200190815260200160002054115b611a8d576040517f08c379a0000000000000000000000000000000000000000000000000000000008152600401611a8490612f95565b60405180910390fd5b60008211611ad0576040517f08c379a0000000000000000000000000000000000000000000000000000000008152600401611ac79061361a565b60405180910390fd5b6000670de0b6b3a7640000600260008473ffffffffffffffffffffffffffffffffffffffff1673ffffffffffffffffffffffffffffffffffffffff16815260200190815260200160002054611b259190612d52565b600160008673ffffffffffffffffffffffffffffffffffffffff1673ffffffffffffffffffffffffffffffffffffffff16815260200190815260200160002060040154600260008773ffffffffffffffffffffffffffffffffffffffff1673ffffffffffffffffffffffffffffffffffffffff1681526020019081526020016000205485611bb39190612d52565b611bbd9190612d52565b611bc79190612dc3565b905060008111611c0c576040517f08c379a0000000000000000000000000000000000000000000000000000000008152600401611c03906136ac565b60405180910390fd5b808273ffffffffffffffffffffffffffffffffffffffff166370a08231306040518263ffffffff1660e01b8152600401611c469190612a6a565b602060405180830381865afa158015611c63573d6000803e3d6000fd5b505050506040513d601f19601f82011682018060405250810190611c8791906131b2565b1015611cc8576040517f08c379a0000000000000000000000000000000000000000000000000000000008152600401611cbf9061373e565b60405180910390fd5b828473ffffffffffffffffffffffffffffffffffffffff166370a08231336040518263ffffffff1660e01b8152600401611d029190612a6a565b602060405180830381865afa158015611d1f573d6000803e3d6000fd5b505050506040513d601f19601f82011682018060405250810190611d4391906131b2565b1015611d84576040517f08c379a0000000000000000000000000000000000000000000000000000000008152600401611d7b906137d0565b60405180910390fd5b80600360003373ffffffffffffffffffffffffffffffffffffffff1673ffffffffffffffffffffffffffffffffffffffff16815260200190815260200160002060008473ffffffffffffffffffffffffffffffffffffffff1673ffffffffffffffffffffffffffffffffffffffff1681526020019081526020016000206001016000828254611e139190613045565b9250508190555080600160008473ffffffffffffffffffffffffffffffffffffffff1673ffffffffffffffffffffffffffffffffffffffff1681526020019081526020016000206002016000828254611e6c9190613045565b925050819055508373ffffffffffffffffffffffffffffffffffffffff166323b872dd3330866040518463ffffffff1660e01b8152600401611eb093929190612fb5565b6020604051808303816000875af1158015611ecf573d6000803e3d6000fd5b505050506040513d601f19601f82011682018060405250810190611ef39190613018565b508173ffffffffffffffffffffffffffffffffffffffff1663a9059cbb33836040518363ffffffff1660e01b8152600401611f2f929190613337565b6020604051808303816000875af1158015611f4e573d6000803e3d6000fd5b505050506040513d601f19601f82011682018060405250810190611f729190613018565b508173ffffffffffffffffffffffffffffffffffffffff163373ffffffffffffffffffffffffffffffffffffffff167f312a5e5e1079f5dda4e95dbbd0b908b291fd5b992ef22073643ab691572c5b5283604051611fd091906129e7565b60405180910390a350505050565b3373ffffffffffffffffffffffffffffffffffffffff1660008054906101000a900473ffffffffffffffffffffffffffffffffffffffff1673ffffffffffffffffffffffffffffffffffffffff161461206c576040517f08c379a000000000000000000000000000000000000000000000000000000000815260040161206390612e51565b60405180910390fd5b600160008473ffffffffffffffffffffffffffffffffffffffff1673ffffffffffffffffffffffffffffffffffffffff16815260200190815260200160002060000160009054906101000a900460ff16156120fc576040517f08c379a00000000000000000000000000000000000000000000000000000000081526004016120f39061383c565b60405180910390fd5b600a670de0b6b3a764000060096121139190612d52565b61211d9190612dc3565b81111561215f576040517f08c379a0000000000000000000000000000000000000000000000000000000008152600401612156906138a8565b60405180910390fd5b6040518060a00160405280600115158152602001600081526020016000815260200183815260200182815250600160008573ffffffffffffffffffffffffffffffffffffffff1673ffffffffffffffffffffffffffffffffffffffff16815260200190815260200160002060008201518160000160006101000a81548160ff021916908315150217905550602082015181600101556040820151816002015560608201518160030155608082015181600401559050506004839080600181540180825580915050600190039060005260206000200160009091909190916101000a81548173ffffffffffffffffffffffffffffffffffffffff021916908373ffffffffffffffffffffffffffffffffffffffff160217905550505050565b60016020528060005260406000206000915090508060000160009054906101000a900460ff16908060010154908060020154908060030154908060040154905085565b6301e1338081565b6000811161230b576040517f08c379a000000000000000000000000000000000000000000000000000000000815260040161230290612f29565b60405180910390fd5b6123153383612663565b80600360003373ffffffffffffffffffffffffffffffffffffffff1673ffffffffffffffffffffffffffffffffffffffff16815260200190815260200160002060008473ffffffffffffffffffffffffffffffffffffffff1673ffffffffffffffffffffffffffffffffffffffff1681526020019081526020016000206000015410156123d7576040517f08c379a00000000000000000000000000000000000000000000000000000000081526004016123ce90613914565b60405180910390fd5b80600360003373ffffffffffffffffffffffffffffffffffffffff1673ffffffffffffffffffffffffffffffffffffffff16815260200190815260200160002060008473ffffffffffffffffffffffffffffffffffffffff1673ffffffffffffffffffffffffffffffffffffffff16815260200190815260200160002060000160008282546124669190613303565b9250508190555080600160008473ffffffffffffffffffffffffffffffffffffffff1673ffffffffffffffffffffffffffffffffffffffff16815260200190815260200160002060010160008282546124bf9190613303565b925050819055508173ffffffffffffffffffffffffffffffffffffffff1663a9059cbb33836040518363ffffffff1660e01b8152600401612501929190613337565b6020604051808303816000875af1158015612520573d6000803e3d6000fd5b505050506040513d601f19601f820116820180604052508101906125449190613018565b508173ffffffffffffffffffffffffffffffffffffffff163373ffffffffffffffffffffffffffffffffffffffff167f9b1bfa7fa9ee420a16e124f794c35ac9f90472acc99140eb2f6447c714cad8eb836040516125a291906129e7565b60405180910390a35050565b6125b6612913565b600360008473ffffffffffffffffffffffffffffffffffffffff1673ffffffffffffffffffffffffffffffffffffffff16815260200190815260200160002060008373ffffffffffffffffffffffffffffffffffffffff1673ffffffffffffffffffffffffffffffffffffffff1681526020019081526020016000206040518060600160405290816000820154815260200160018201548152602001600282015481525050905092915050565b6000600360008473ffffffffffffffffffffffffffffffffffffffff1673ffffffffffffffffffffffffffffffffffffffff16815260200190815260200160002060008373ffffffffffffffffffffffffffffffffffffffff1673ffffffffffffffffffffffffffffffffffffffff168152602001908152602001600020905060008160020154426126f59190613303565b905060008111801561270b575060008260000154115b15612809576000670de0b6b3a76400006301e1338061272a9190612d52565b82600160008773ffffffffffffffffffffffffffffffffffffffff1673ffffffffffffffffffffffffffffffffffffffff16815260200190815260200160002060030154856000015461277d9190612d52565b6127879190612d52565b6127919190612dc3565b9050808360000160008282546127a79190613045565b9250508190555080600160008673ffffffffffffffffffffffffffffffffffffffff1673ffffffffffffffffffffffffffffffffffffffff16815260200190815260200160002060010160008282546128009190613045565b92505081905550505b42826002018190555050505050565b60008183106128275781612829565b825b905092915050565b6128c982826040516024016128479291906139b3565b6040516020818303038152906040527fb60e72cc000000000000000000000000000000000000000000000000000000007bffffffffffffffffffffffffffffffffffffffffffffffffffffffff19166020820180517bffffffffffffffffffffffffffffffffffffffffffffffffffffffff83818316178352505050506128cd565b5050565b6128e4816128dc6128e7612908565b63ffffffff16565b50565b60006a636f6e736f6c652e6c6f679050600080835160208501845afa505050565b612934819050919050565b60405180606001604052806000815260200160008152602001600081525090565b61293c6139e3565b565b600080fd5b600073ffffffffffffffffffffffffffffffffffffffff82169050919050565b600061296e82612943565b9050919050565b61297e81612963565b811461298957600080fd5b50565b60008135905061299b81612975565b92915050565b6000602082840312156129b7576129b661293e565b5b60006129c58482850161298c565b91505092915050565b6000819050919050565b6129e1816129ce565b82525050565b60006020820190506129fc60008301846129d8565b92915050565b612a0b816129ce565b8114612a1657600080fd5b50565b600081359050612a2881612a02565b92915050565b600060208284031215612a4457612a4361293e565b5b6000612a5284828501612a19565b91505092915050565b612a6481612963565b82525050565b6000602082019050612a7f6000830184612a5b565b92915050565b60008060408385031215612a9c57612a9b61293e565b5b6000612aaa8582860161298c565b9250506020612abb85828601612a19565b9150509250929050565b600080600060608486031215612ade57612add61293e565b5b6000612aec8682870161298c565b9350506020612afd86828701612a19565b9250506040612b0e8682870161298c565b9150509250925092565b60008060008060808587031215612b3257612b3161293e565b5b6000612b408782880161298c565b9450506020612b518782880161298c565b9350506040612b628782880161298c565b9250506060612b7387828801612a19565b91505092959194509250565b60008060408385031215612b9657612b9561293e565b5b6000612ba48582860161298c565b9250506020612bb58582860161298c565b9150509250929050565b6000606082019050612bd460008301866129d8565b612be160208301856129d8565b612bee60408301846129d8565b949350505050565b600080600060608486031215612c0f57612c0e61293e565b5b6000612c1d8682870161298c565b9350506020612c2e86828701612a19565b9250506040612c3f86828701612a19565b9150509250925092565b60008115159050919050565b612c5e81612c49565b82525050565b600060a082019050612c796000830188612c55565b612c8660208301876129d8565b612c9360408301866129d8565b612ca060608301856129d8565b612cad60808301846129d8565b9695505050505050565b612cc0816129ce565b82525050565b606082016000820151612cdc6000850182612cb7565b506020820151612cef6020850182612cb7565b506040820151612d026040850182612cb7565b50505050565b6000606082019050612d1d6000830184612cc6565b92915050565b7f4e487b7100000000000000000000000000000000000000000000000000000000600052601160045260246000fd5b6000612d5d826129ce565b9150612d68836129ce565b9250828202612d76816129ce565b91508282048414831517612d8d57612d8c612d23565b5b5092915050565b7f4e487b7100000000000000000000000000000000000000000000000000000000600052601260045260246000fd5b6000612dce826129ce565b9150612dd9836129ce565b925082612de957612de8612d94565b5b828204905092915050565b600082825260208201905092915050565b7f4f6e6c79206f776e65722063616e2063616c6c20746869732100000000000000600082015250565b6000612e3b601983612df4565b9150612e4682612e05565b602082019050919050565b60006020820190508181036000830152612e6a81612e2e565b9050919050565b7f546f6b656e206e6f7420737570706f7274656400000000000000000000000000600082015250565b6000612ea7601383612df4565b9150612eb282612e71565b602082019050919050565b60006020820190508181036000830152612ed681612e9a565b9050919050565b7f416d6f756e74206d7573742062652067726561746572207468616e2030000000600082015250565b6000612f13601d83612df4565b9150612f1e82612edd565b602082019050919050565b60006020820190508181036000830152612f4281612f06565b9050919050565b7f546f6b656e207072696365206e6f742073657400000000000000000000000000600082015250565b6000612f7f601383612df4565b9150612f8a82612f49565b602082019050919050565b60006020820190508181036000830152612fae81612f72565b9050919050565b6000606082019050612fca6000830186612a5b565b612fd76020830185612a5b565b612fe460408301846129d8565b949350505050565b612ff581612c49565b811461300057600080fd5b50565b60008151905061301281612fec565b92915050565b60006020828403121561302e5761302d61293e565b5b600061303c84828501613003565b91505092915050565b6000613050826129ce565b915061305b836129ce565b925082820190508082111561307357613072612d23565b5b92915050565b7f7265706179546f6b656e416d6f756e74206d757374206265206772656174657260008201527f207468616e203000000000000000000000000000000000000000000000000000602082015250565b60006130d5602783612df4565b91506130e082613079565b604082019050919050565b60006020820190508181036000830152613104816130c8565b9050919050565b7f61637475616c5265706179426f72726f77546f6b656e416d6f756e74206d757360008201527f742062652067726561746572207468616e203000000000000000000000000000602082015250565b6000613167603383612df4565b91506131728261310b565b604082019050919050565b600060208201905081810360008301526131968161315a565b9050919050565b6000815190506131ac81612a02565b92915050565b6000602082840312156131c8576131c761293e565b5b60006131d68482850161319d565b91505092915050565b7f496e73756666696369656e742061637475616c5265706179426f72726f77546f60008201527f6b656e416d6f756e742062616c616e6365000000000000000000000000000000602082015250565b600061323b603183612df4565b9150613246826131df565b604082019050919050565b6000602082019050818103600083015261326a8161322e565b9050919050565b7f496e73756666696369656e742061637475616c426f72726f77416d6f756e742060008201527f62616c616e636500000000000000000000000000000000000000000000000000602082015250565b60006132cd602783612df4565b91506132d882613271565b604082019050919050565b600060208201905081810360008301526132fc816132c0565b9050919050565b600061330e826129ce565b9150613319836129ce565b925082820390508181111561333157613330612d23565b5b92915050565b600060408201905061334c6000830185612a5b565b61335960208301846129d8565b9392505050565b7f636f6c6c61746572616c546f6b656e416d6f756e74206d75737420626520677260008201527f6561746572207468616e20300000000000000000000000000000000000000000602082015250565b60006133bc602c83612df4565b91506133c782613360565b604082019050919050565b600060208201905081810360008301526133eb816133af565b9050919050565b7f666f725265706179416d6f756e74206d7573742062652067726561746572207460008201527f68616e2030000000000000000000000000000000000000000000000000000000602082015250565b600061344e602583612df4565b9150613459826133f2565b604082019050919050565b6000602082019050818103600083015261347d81613441565b9050919050565b7f496e73756666696369656e7420666f725265706179416d6f756e742062616c6160008201527f6e63650000000000000000000000000000000000000000000000000000000000602082015250565b60006134e0602383612df4565b91506134eb82613484565b604082019050919050565b6000602082019050818103600083015261350f816134d3565b9050919050565b7f496e73756666696369656e742061637475616c436f6c6c61746572616c416d6f60008201527f756e742062616c616e6365000000000000000000000000000000000000000000602082015250565b6000613572602b83612df4565b915061357d82613516565b604082019050919050565b600060208201905081810360008301526135a181613565565b9050919050565b7f6d6f727467616765416d6f756e74206d7573742062652067726561746572207460008201527f68616e2030000000000000000000000000000000000000000000000000000000602082015250565b6000613604602583612df4565b915061360f826135a8565b604082019050919050565b60006020820190508181036000830152613633816135f7565b9050919050565b7f626f72726f77416d6f756e74206d75737420626520677265617465722074686160008201527f6e20300000000000000000000000000000000000000000000000000000000000602082015250565b6000613696602383612df4565b91506136a18261363a565b604082019050919050565b600060208201905081810360008301526136c581613689565b9050919050565b7f496e73756666696369656e7420626f72726f77416d6f756e742062616c616e6360008201527f6500000000000000000000000000000000000000000000000000000000000000602082015250565b6000613728602183612df4565b9150613733826136cc565b604082019050919050565b600060208201905081810360008301526137578161371b565b9050919050565b7f496e73756666696369656e74206d6f727467616765416d6f756e742062616c6160008201527f6e63650000000000000000000000000000000000000000000000000000000000602082015250565b60006137ba602383612df4565b91506137c58261375e565b604082019050919050565b600060208201905081810360008301526137e9816137ad565b9050919050565b7f546f6b656e20616c726561647920616464656400000000000000000000000000600082015250565b6000613826601383612df4565b9150613831826137f0565b602082019050919050565b6000602082019050818103600083015261385581613819565b9050919050565b7f436f6c6c61746572616c466163746f7220746f6f206869676800000000000000600082015250565b6000613892601983612df4565b915061389d8261385c565b602082019050919050565b600060208201905081810360008301526138c181613885565b9050919050565b7f496e73756666696369656e742062616c616e6365000000000000000000000000600082015250565b60006138fe601483612df4565b9150613909826138c8565b602082019050919050565b6000602082019050818103600083015261392d816138f1565b9050919050565b600081519050919050565b60005b8381101561395d578082015181840152602081019050613942565b60008484015250505050565b6000601f19601f8301169050919050565b600061398582613934565b61398f8185612df4565b935061399f81856020860161393f565b6139a881613969565b840191505092915050565b600060408201905081810360008301526139cd818561397a565b90506139dc60208301846129d8565b9392505050565b7f4e487b7100000000000000000000000000000000000000000000000000000000600052605160045260246000fdfea2646970667358221220c52abcefbb9d4bb920fcae20a5a9ba5c65a3c10c0f22e60f15e670b98f0fd35c64736f6c634300081c0033",
  "devdoc": {
    "kind": "dev",
    "methods": {},
    "version": 1
  },
  "userdoc": {
    "kind": "user",
    "methods": {},
    "version": 1
  },
  "storageLayout": {
    "storage": [
      {
        "astId": 810,
        "contract": "contracts/DefiLendingDapp.sol:DefiLendingDapp",
        "label": "_owner",
        "offset": 0,
        "slot": "0",
        "type": "t_address"
      },
      {
        "astId": 826,
        "contract": "contracts/DefiLendingDapp.sol:DefiLendingDapp",
        "label": "tokens",
        "offset": 0,
        "slot": "1",
        "type": "t_mapping(t_address,t_struct(TokenInfo)801_storage)"
      },
      {
        "astId": 830,
        "contract": "contracts/DefiLendingDapp.sol:DefiLendingDapp",
        "label": "tokenPrices",
        "offset": 0,
        "slot": "2",
        "type": "t_mapping(t_address,t_uint256)"
      },
      {
        "astId": 837,
        "contract": "contracts/DefiLendingDapp.sol:DefiLendingDapp",
        "label": "accounts",
        "offset": 0,
        "slot": "3",
        "type": "t_mapping(t_address,t_mapping(t_address,t_struct(Account)808_storage))"
      },
      {
        "astId": 840,
        "contract": "contracts/DefiLendingDapp.sol:DefiLendingDapp",
        "label": "acceptedTokens",
        "offset": 0,
        "slot": "4",
        "type": "t_array(t_address)dyn_storage"
      }
    ],
    "types": {
      "t_address": {
        "encoding": "inplace",
        "label": "address",
        "numberOfBytes": "20"
      },
      "t_array(t_address)dyn_storage": {
        "base": "t_address",
        "encoding": "dynamic_array",
        "label": "address[]",
        "numberOfBytes": "32"
      },
      "t_bool": {
        "encoding": "inplace",
        "label": "bool",
        "numberOfBytes": "1"
      },
      "t_mapping(t_address,t_mapping(t_address,t_struct(Account)808_storage))": {
        "encoding": "mapping",
        "key": "t_address",
        "label": "mapping(address => mapping(address => struct DefiLendingDapp.Account))",
        "numberOfBytes": "32",
        "value": "t_mapping(t_address,t_struct(Account)808_storage)"
      },
      "t_mapping(t_address,t_struct(Account)808_storage)": {
        "encoding": "mapping",
        "key": "t_address",
        "label": "mapping(address => struct DefiLendingDapp.Account)",
        "numberOfBytes": "32",
        "value": "t_struct(Account)808_storage"
      },
      "t_mapping(t_address,t_struct(TokenInfo)801_storage)": {
        "encoding": "mapping",
        "key": "t_address",
        "label": "mapping(address => struct DefiLendingDapp.TokenInfo)",
        "numberOfBytes": "32",
        "value": "t_struct(TokenInfo)801_storage"
      },
      "t_mapping(t_address,t_uint256)": {
        "encoding": "mapping",
        "key": "t_address",
        "label": "mapping(address => uint256)",
        "numberOfBytes": "32",
        "value": "t_uint256"
      },
      "t_struct(Account)808_storage": {
        "encoding": "inplace",
        "label": "struct DefiLendingDapp.Account",
        "members": [
          {
            "astId": 803,
            "contract": "contracts/DefiLendingDapp.sol:DefiLendingDapp",
            "label": "deposited",
            "offset": 0,
            "slot": "0",
            "type": "t_uint256"
          },
          {
            "astId": 805,
            "contract": "contracts/DefiLendingDapp.sol:DefiLendingDapp",
            "label": "borrowed",
            "offset": 0,
            "slot": "1",
            "type": "t_uint256"
          },
          {
            "astId": 807,
            "contract": "contracts/DefiLendingDapp.sol:DefiLendingDapp",
            "label": "lastUpdated",
            "offset": 0,
            "slot": "2",
            "type": "t_uint256"
          }
        ],
        "numberOfBytes": "96"
      },
      "t_struct(TokenInfo)801_storage": {
        "encoding": "inplace",
        "label": "struct DefiLendingDapp.TokenInfo",
        "members": [
          {
            "astId": 792,
            "contract": "contracts/DefiLendingDapp.sol:DefiLendingDapp",
            "label": "isAccepted",
            "offset": 0,
            "slot": "0",
            "type": "t_bool"
          },
          {
            "astId": 794,
            "contract": "contracts/DefiLendingDapp.sol:DefiLendingDapp",
            "label": "totalSupply",
            "offset": 0,
            "slot": "1",
            "type": "t_uint256"
          },
          {
            "astId": 796,
            "contract": "contracts/DefiLendingDapp.sol:DefiLendingDapp",
            "label": "totalBorrowed",
            "offset": 0,
            "slot": "2",
            "type": "t_uint256"
          },
          {
            "astId": 798,
            "contract": "contracts/DefiLendingDapp.sol:DefiLendingDapp",
            "label": "interestRate",
            "offset": 0,
            "slot": "3",
            "type": "t_uint256"
          },
          {
            "astId": 800,
            "contract": "contracts/DefiLendingDapp.sol:DefiLendingDapp",
            "label": "collateralFactor",
            "offset": 0,
            "slot": "4",
            "type": "t_uint256"
          }
        ],
        "numberOfBytes": "160"
      },
      "t_uint256": {
        "encoding": "inplace",
        "label": "uint256",
        "numberOfBytes": "32"
      }
    }
  }
}