{
  "_format": "hh-sol-artifact-1",
  "contractName": "LPSwap",
  "sourceName": "contracts/LPSwap.sol",
  "abi": [
    {
      "inputs": [
        {
          "internalType": "address",
          "name": "peth_addr",
          "type": "address"
        },
        {
          "internalType": "address",
          "name": "pusdt_addr",
          "type": "address"
        }
      ],
      "stateMutability": "nonpayable",
      "type": "constructor"
    },
    {
      "anonymous": false,
      "inputs": [
        {
          "indexed": true,
          "internalType": "address",
          "name": "provider",
          "type": "address"
        },
        {
          "indexed": false,
          "internalType": "uint256",
          "name": "amountPETH",
          "type": "uint256"
        },
        {
          "indexed": false,
          "internalType": "uint256",
          "name": "amountPUSDT",
          "type": "uint256"
        }
      ],
      "name": "LiquidityAdded",
      "type": "event"
    },
    {
      "anonymous": false,
      "inputs": [
        {
          "indexed": true,
          "internalType": "address",
          "name": "provider",
          "type": "address"
        },
        {
          "indexed": false,
          "internalType": "uint256",
          "name": "amountPETH",
          "type": "uint256"
        },
        {
          "indexed": false,
          "internalType": "uint256",
          "name": "amountPUSDT",
          "type": "uint256"
        }
      ],
      "name": "LiquidityRemoved",
      "type": "event"
    },
    {
      "anonymous": false,
      "inputs": [
        {
          "indexed": true,
          "internalType": "address",
          "name": "user",
          "type": "address"
        },
        {
          "indexed": true,
          "internalType": "address",
          "name": "tokenIn",
          "type": "address"
        },
        {
          "indexed": false,
          "internalType": "uint256",
          "name": "amountIn",
          "type": "uint256"
        },
        {
          "indexed": true,
          "internalType": "address",
          "name": "tokenOut",
          "type": "address"
        },
        {
          "indexed": false,
          "internalType": "uint256",
          "name": "amountOut",
          "type": "uint256"
        }
      ],
      "name": "Swapped",
      "type": "event"
    },
    {
      "inputs": [],
      "name": "_PETH",
      "outputs": [
        {
          "internalType": "contract MyERC20Token",
          "name": "",
          "type": "address"
        }
      ],
      "stateMutability": "view",
      "type": "function"
    },
    {
      "inputs": [],
      "name": "_PUSDT",
      "outputs": [
        {
          "internalType": "contract MyERC20Token",
          "name": "",
          "type": "address"
        }
      ],
      "stateMutability": "view",
      "type": "function"
    },
    {
      "inputs": [],
      "name": "_reservePETH",
      "outputs": [
        {
          "internalType": "uint256",
          "name": "",
          "type": "uint256"
        }
      ],
      "stateMutability": "view",
      "type": "function"
    },
    {
      "inputs": [],
      "name": "_reservePUSDT",
      "outputs": [
        {
          "internalType": "uint256",
          "name": "",
          "type": "uint256"
        }
      ],
      "stateMutability": "view",
      "type": "function"
    },
    {
      "inputs": [
        {
          "internalType": "uint256",
          "name": "amountPETH",
          "type": "uint256"
        },
        {
          "internalType": "uint256",
          "name": "amountPUSDT",
          "type": "uint256"
        }
      ],
      "name": "addLiquidity",
      "outputs": [],
      "stateMutability": "nonpayable",
      "type": "function"
    },
    {
      "inputs": [],
      "name": "getPrice",
      "outputs": [
        {
          "internalType": "uint256",
          "name": "",
          "type": "uint256"
        }
      ],
      "stateMutability": "view",
      "type": "function"
    },
    {
      "inputs": [
        {
          "internalType": "uint256",
          "name": "liquidityPercent",
          "type": "uint256"
        }
      ],
      "name": "removeLiquidity",
      "outputs": [],
      "stateMutability": "nonpayable",
      "type": "function"
    },
    {
      "inputs": [
        {
          "internalType": "uint256",
          "name": "amountIn",
          "type": "uint256"
        },
        {
          "internalType": "address",
          "name": "inputToken",
          "type": "address"
        }
      ],
      "name": "swap",
      "outputs": [
        {
          "internalType": "uint256",
          "name": "amountOut",
          "type": "uint256"
        }
      ],
      "stateMutability": "nonpayable",
      "type": "function"
    }
  ],
  "bytecode": "0x608060405234801561001057600080fd5b506040516115e53803806115e58339818101604052810190610032919061011d565b816000806101000a81548173ffffffffffffffffffffffffffffffffffffffff021916908373ffffffffffffffffffffffffffffffffffffffff16021790555080600160006101000a81548173ffffffffffffffffffffffffffffffffffffffff021916908373ffffffffffffffffffffffffffffffffffffffff160217905550505061015d565b600080fd5b600073ffffffffffffffffffffffffffffffffffffffff82169050919050565b60006100ea826100bf565b9050919050565b6100fa816100df565b811461010557600080fd5b50565b600081519050610117816100f1565b92915050565b60008060408385031215610134576101336100ba565b5b600061014285828601610108565b925050602061015385828601610108565b9150509250929050565b6114798061016c6000396000f3fe608060405234801561001057600080fd5b50600436106100885760003560e01c80639cd441da1161005b5780639cd441da14610103578063c07ba2031461011f578063d3986f081461013d578063ff89a51f1461016d57610088565b806339fc60621461008d57806363232898146100ab57806398d5fdca146100c95780639c8f9f23146100e7575b600080fd5b61009561018b565b6040516100a29190610d37565b60405180910390f35b6100b3610191565b6040516100c09190610d37565b60405180910390f35b6100d1610197565b6040516100de9190610d37565b60405180910390f35b61010160048036038101906100fc9190610d83565b610213565b005b61011d60048036038101906101189190610db0565b6104b5565b005b61012761080b565b6040516101349190610e6f565b60405180910390f35b61015760048036038101906101529190610ec8565b610831565b6040516101649190610d37565b60405180910390f35b610175610cfa565b6040516101829190610e6f565b60405180910390f35b60035481565b60025481565b60008060035414806101ab57506000600254145b156101eb576040517f08c379a00000000000000000000000000000000000000000000000000000000081526004016101e290610f65565b60405180910390fd5b600254670de0b6b3a76400006003546102049190610fb4565b61020e9190611025565b905090565b600081118015610224575060648111155b610263576040517f08c379a000000000000000000000000000000000000000000000000000000000815260040161025a906110a2565b60405180910390fd5b60006064826002546102759190610fb4565b61027f9190611025565b905060006064836003546102939190610fb4565b61029d9190611025565b90506000821180156102af5750600081115b6102ee576040517f08c379a00000000000000000000000000000000000000000000000000000000081526004016102e59061110e565b60405180910390fd5b8160026000828254610300919061112e565b925050819055508060036000828254610319919061112e565b9250508190555060008054906101000a900473ffffffffffffffffffffffffffffffffffffffff1673ffffffffffffffffffffffffffffffffffffffff1663a9059cbb33846040518363ffffffff1660e01b815260040161037b929190611171565b6020604051808303816000875af115801561039a573d6000803e3d6000fd5b505050506040513d601f19601f820116820180604052508101906103be91906111d2565b50600160009054906101000a900473ffffffffffffffffffffffffffffffffffffffff1673ffffffffffffffffffffffffffffffffffffffff1663a9059cbb33836040518363ffffffff1660e01b815260040161041c929190611171565b6020604051808303816000875af115801561043b573d6000803e3d6000fd5b505050506040513d601f19601f8201168201806040525081019061045f91906111d2565b503373ffffffffffffffffffffffffffffffffffffffff167f96cd817c6329656790ef8fba7675405193677d39619571282f5e21f3a98cd05983836040516104a89291906111ff565b60405180910390a2505050565b6000821180156104c55750600081115b610504576040517f08c379a00000000000000000000000000000000000000000000000000000000081526004016104fb90611274565b60405180910390fd5b60006002541415801561051a5750600060035414155b15610641576000600254600354846105329190610fb4565b61053c9190611025565b905080821015610581576040517f08c379a0000000000000000000000000000000000000000000000000000000008152600401610578906112e0565b60405180910390fd5b8082111561063f578091506000818361059a919061112e565b9050600160009054906101000a900473ffffffffffffffffffffffffffffffffffffffff1673ffffffffffffffffffffffffffffffffffffffff1663a9059cbb33836040518363ffffffff1660e01b81526004016105f9929190611171565b6020604051808303816000875af1158015610618573d6000803e3d6000fd5b505050506040513d601f19601f8201168201806040525081019061063c91906111d2565b50505b505b60008054906101000a900473ffffffffffffffffffffffffffffffffffffffff1673ffffffffffffffffffffffffffffffffffffffff166323b872dd3330856040518463ffffffff1660e01b815260040161069e93929190611300565b6020604051808303816000875af11580156106bd573d6000803e3d6000fd5b505050506040513d601f19601f820116820180604052508101906106e191906111d2565b50600160009054906101000a900473ffffffffffffffffffffffffffffffffffffffff1673ffffffffffffffffffffffffffffffffffffffff166323b872dd3330846040518463ffffffff1660e01b815260040161074193929190611300565b6020604051808303816000875af1158015610760573d6000803e3d6000fd5b505050506040513d601f19601f8201168201806040525081019061078491906111d2565b5081600260008282546107979190611337565b9250508190555080600360008282546107b09190611337565b925050819055503373ffffffffffffffffffffffffffffffffffffffff167fac1d76749e5447b7b16f5ab61447e1bd502f3bb4807af3b28e620d1700a6ee4583836040516107ff9291906111ff565b60405180910390a25050565b600160009054906101000a900473ffffffffffffffffffffffffffffffffffffffff1681565b6000808311610875576040517f08c379a000000000000000000000000000000000000000000000000000000000815260040161086c906113b7565b60405180910390fd5b60008054906101000a900473ffffffffffffffffffffffffffffffffffffffff1673ffffffffffffffffffffffffffffffffffffffff168273ffffffffffffffffffffffffffffffffffffffff16148061091c5750600160009054906101000a900473ffffffffffffffffffffffffffffffffffffffff1673ffffffffffffffffffffffffffffffffffffffff168273ffffffffffffffffffffffffffffffffffffffff16145b61095b576040517f08c379a000000000000000000000000000000000000000000000000000000000815260040161095290611423565b60405180910390fd5b60008060009054906101000a900473ffffffffffffffffffffffffffffffffffffffff1673ffffffffffffffffffffffffffffffffffffffff168373ffffffffffffffffffffffffffffffffffffffff161490506000816109be576003546109c2565b6002545b90506000826109d3576002546109d7565b6003545b905085826109e59190611337565b81876109f19190610fb4565b6109fb9190611025565b93508215610b7c578560026000828254610a159190611337565b925050819055508360036000828254610a2e919061112e565b9250508190555060008054906101000a900473ffffffffffffffffffffffffffffffffffffffff1673ffffffffffffffffffffffffffffffffffffffff166323b872dd3330896040518463ffffffff1660e01b8152600401610a9293929190611300565b6020604051808303816000875af1158015610ab1573d6000803e3d6000fd5b505050506040513d601f19601f82011682018060405250810190610ad591906111d2565b50600160009054906101000a900473ffffffffffffffffffffffffffffffffffffffff1673ffffffffffffffffffffffffffffffffffffffff1663a9059cbb33866040518363ffffffff1660e01b8152600401610b33929190611171565b6020604051808303816000875af1158015610b52573d6000803e3d6000fd5b505050506040513d601f19601f82011682018060405250810190610b7691906111d2565b50610cf1565b8560036000828254610b8e9190611337565b925050819055508360026000828254610ba7919061112e565b92505081905550600160009054906101000a900473ffffffffffffffffffffffffffffffffffffffff1673ffffffffffffffffffffffffffffffffffffffff166323b872dd3330896040518463ffffffff1660e01b8152600401610c0d93929190611300565b6020604051808303816000875af1158015610c2c573d6000803e3d6000fd5b505050506040513d601f19601f82011682018060405250810190610c5091906111d2565b5060008054906101000a900473ffffffffffffffffffffffffffffffffffffffff1673ffffffffffffffffffffffffffffffffffffffff1663a9059cbb33866040518363ffffffff1660e01b8152600401610cac929190611171565b6020604051808303816000875af1158015610ccb573d6000803e3d6000fd5b505050506040513d601f19601f82011682018060405250810190610cef91906111d2565b505b50505092915050565b60008054906101000a900473ffffffffffffffffffffffffffffffffffffffff1681565b6000819050919050565b610d3181610d1e565b82525050565b6000602082019050610d4c6000830184610d28565b92915050565b600080fd5b610d6081610d1e565b8114610d6b57600080fd5b50565b600081359050610d7d81610d57565b92915050565b600060208284031215610d9957610d98610d52565b5b6000610da784828501610d6e565b91505092915050565b60008060408385031215610dc757610dc6610d52565b5b6000610dd585828601610d6e565b9250506020610de685828601610d6e565b9150509250929050565b600073ffffffffffffffffffffffffffffffffffffffff82169050919050565b6000819050919050565b6000610e35610e30610e2b84610df0565b610e10565b610df0565b9050919050565b6000610e4782610e1a565b9050919050565b6000610e5982610e3c565b9050919050565b610e6981610e4e565b82525050565b6000602082019050610e846000830184610e60565b92915050565b6000610e9582610df0565b9050919050565b610ea581610e8a565b8114610eb057600080fd5b50565b600081359050610ec281610e9c565b92915050565b60008060408385031215610edf57610ede610d52565b5b6000610eed85828601610d6e565b9250506020610efe85828601610eb3565b9150509250929050565b600082825260208201905092915050565b7f4e6f206c69717569646974790000000000000000000000000000000000000000600082015250565b6000610f4f600c83610f08565b9150610f5a82610f19565b602082019050919050565b60006020820190508181036000830152610f7e81610f42565b9050919050565b7f4e487b7100000000000000000000000000000000000000000000000000000000600052601160045260246000fd5b6000610fbf82610d1e565b9150610fca83610d1e565b9250828202610fd881610d1e565b91508282048414831517610fef57610fee610f85565b5b5092915050565b7f4e487b7100000000000000000000000000000000000000000000000000000000600052601260045260246000fd5b600061103082610d1e565b915061103b83610d1e565b92508261104b5761104a610ff6565b5b828204905092915050565b7f496e76616c69642070657263656e746167652100000000000000000000000000600082015250565b600061108c601383610f08565b915061109782611056565b602082019050919050565b600060208201905081810360008301526110bb8161107f565b9050919050565b7f496e73756666696369656e74206c697175696469747900000000000000000000600082015250565b60006110f8601683610f08565b9150611103826110c2565b602082019050919050565b60006020820190508181036000830152611127816110eb565b9050919050565b600061113982610d1e565b915061114483610d1e565b925082820390508181111561115c5761115b610f85565b5b92915050565b61116b81610e8a565b82525050565b60006040820190506111866000830185611162565b6111936020830184610d28565b9392505050565b60008115159050919050565b6111af8161119a565b81146111ba57600080fd5b50565b6000815190506111cc816111a6565b92915050565b6000602082840312156111e8576111e7610d52565b5b60006111f6848285016111bd565b91505092915050565b60006040820190506112146000830185610d28565b6112216020830184610d28565b9392505050565b7f416d6f756e7473206d7573742062652067726561746572207468616e20302100600082015250565b600061125e601f83610f08565b915061126982611228565b602082019050919050565b6000602082019050818103600083015261128d81611251565b9050919050565b7f4e656564206d6f726520505553445420616d6f756e7421000000000000000000600082015250565b60006112ca601783610f08565b91506112d582611294565b602082019050919050565b600060208201905081810360008301526112f9816112bd565b9050919050565b60006060820190506113156000830186611162565b6113226020830185611162565b61132f6040830184610d28565b949350505050565b600061134282610d1e565b915061134d83610d1e565b925082820190508082111561136557611364610f85565b5b92915050565b7f496e70757420616d6f756e74206d75737420626520706f736974697665000000600082015250565b60006113a1601d83610f08565b91506113ac8261136b565b602082019050919050565b600060208201905081810360008301526113d081611394565b9050919050565b7f496e76616c696420696e70757420746f6b656e00000000000000000000000000600082015250565b600061140d601383610f08565b9150611418826113d7565b602082019050919050565b6000602082019050818103600083015261143c81611400565b905091905056fea2646970667358221220d825f179ab8dc553ebb6bcb0a36136e159ee18ea2322844995cdc1b0702ea18a64736f6c634300081c0033",
  "linkReferences": {},
  "deployedLinkReferences": {}
}